S0290000566F6C746167655F4D6F6E69746F725F4D53535F4D53535F434D335F305F6170702E73726563ED
S315200000000000012099020020090300200B03002094
S315200000100D0300200F030020110300200000000024
S315200000200000000000000000000000001303002074
S3152000003015030020000000001703002019030020EC
S315200000401B0300201D0300201F0300202103002086
S315200000502303002025030020270300202903002056
S315200000602B0300202D030020310E00205D0E0020E2
S3152000007033030020350300203703002039030020F6
S315200000803B0300203D0300203F03002041030020C6
S315200000904303002045030020470300204903002096
S315200000A04B030020000000000000000000000000BC
S315200000B00000000000000000000000004D030020AA
S315200000C04F03002051030020530300205503002036
S315200000D057030020590300205B0300205D03002006
S315200000E05F030020610300206303002065030020D6
S315200000F067030020690300206B0300206D030020A6
S315200001006F03002071030020730300207503002075
S3152000011077030020790300207B0300207D03002045
S315200001207F03002081030020830300208503002015
S3152000013087030020890300208B0300208D030020E5
S315200001408F030020910300209303002095030020B5
S3152000015097030020990300209B0300209D03002085
S315200001609F030020A1030020A3030020A503002055
S31520000170A7030020A9030020AB030020AD03002025
S31520000180AF030020B1030020B3030020B5030020F5
S31520000190B7030020B9030020BB030020BD030020C5
S315200001A0BF030020C1030020C3030020C503002095
S315200001B0C7030020C9030020CB030020CD03002065
S315200001C0CF030020D1030020D3030020D503002035
S315200001D0D7030020D9030020DB030020DD03002005
S315200001E0DF030020E1030020E3030020E5030020D5
S315200001F0E7030020E9030020EB030020ED030020A5
S31520000200EF030020F1030020F3030020F503002074
S31520000210F7030020F903002061150020891500202E
S31520000220B1150020D915002001160020291600201E
S315200002305116002079160020A1160020C91600208C
S31520000240F1160020191700204117002069170020F9
S3152000025091170020B9170020E11700200918002067
S31520000260311800205918002081180020A9180020D4
S31520000270D1180020F9180020211900204919002042
S315200002807119002099190020C1190020E9190020B0
S31520000290111A0020391A002068488047684800282B
S315200002A00BD168486849694A884206D091421CBFEA
S315200002B050F8043B41F8043BF8D165486549664A45
S315200002C0884206D091421CBF50F8043B41F8043BBB
S315200002D0F8D162486249634A914218BF41F8040B3B
S315200002E0FAD100000000000000000000000000001D
S315200002F0DFF874010FF2030E00474FF000004FF0B5
S315200003000001DFF868F1FEE7FEE7FEE7FEE7FEE71D
S31520000310FEE7FEE7FEE7FEE7FEE7FEE7FEE7FEE78F
S31520000320FEE7FEE7FEE7FEE7FEE7FEE7FEE7FEE77F
S31520000330FEE7FEE7FEE7FEE7FEE7FEE7FEE7FEE76F
S31520000340FEE7FEE7FEE7FEE7FEE7FEE7FEE7FEE75F
S31520000350FEE7FEE7FEE7FEE7FEE7FEE7FEE7FEE74F
S31520000360FEE7FEE7FEE7FEE7FEE7FEE7FEE7FEE73F
S31520000370FEE7FEE7FEE7FEE7FEE7FEE7FEE7FEE72F
S31520000380FEE7FEE7FEE7FEE7FEE7FEE7FEE7FEE71F
S31520000390FEE7FEE7FEE7FEE7FEE7FEE7FEE7FEE70F
S315200003A0FEE7FEE7FEE7FEE7FEE7FEE7FEE7FEE7FF
S315200003B0FEE7FEE7FEE7FEE7FEE7FEE7FEE7FEE7EF
S315200003C0FEE7FEE7FEE7FEE7FEE7FEE7FEE7FEE7DF
S315200003D0FEE7FEE7FEE7FEE7FEE7FEE7FEE7FEE7CF
S315200003E0FEE7FEE7FEE7FEE7FEE7FEE7FEE7FEE7BF
S315200003F0FEE7FEE7FEE7FEE7FEE7FEE7FEE7FEE7AF
S31520000400FEE7FEE7FEE7FEE7FEE7FEE7FEE7FEE79E
S31520000410FEE7FEE7FEE7FEE7FEE7FEE7FEE7FEE78E
S31520000420FEE7FEE7FEE7FEE7FEE7FEE7FEE7FEE77E
S31520000430FEE7FEE7FEE7FEE7FEE70000C51A00201E
S31520000440000000000000002000000020187D002091
S31520000450187D0020187D00209082002000000000DA
S31520000460908200205886002035250020C1040020D7
S3152000047048F29023C2F200031A780AB901201870B4
S31520000480704700BF47F61850C2F2000008B503684F
S315200004902BB140F20003C0F2000303B1984708BD18
S315200004A080B483B000AF786043F20003C4F2010346
S315200004B07A68C3F8882007F10C07BD4680BC7047D0
S315200004C080B5B4B002AF47F60803C2F2000307F1C5
S315200004D060011A464FF04703084611461A4602F0B5
S315200004E051F847F65003C2F2000307F1480C9E4626
S315200004F0BEE80F00ACE80F009EE80300CCF8000031
S315200005000CF1040C8CF8001047F66803C2F20003C5
S3152000051007F1340C9E46BEE80F00ACE80F00DEF86B
S3152000052000308CF8003047F67C03C2F2000307F156
S31520000530200C9E46BEE80F00ACE80F00DEF8003027
S31520000540ACF8003000F0BEFC4FF01F004FF0050164
S3152000055000F0EEFC4FF01E004FF0050100F0E8FC25
S315200005604FF01D004FF0050100F0E2FC4FF01C009B
S315200005704FF0050100F0DCFC48F22C60C2F20000CE
S315200005804FF461414FF0030200F064F901F068FA7C
S3152000059048F22C60C2F2000047F2F061C2F200017C
S315200005A000F0CCFA07F1600348F22C60C2F200009A
S315200005B019464FF0470200F04FFA07F1480348F278
S315200005C02C60C2F2000019464FF0150200F044FAE2
S315200005D007F1340348F22C60C2F2000019464FF0AE
S315200005E0110200F039FA07F1200348F22C60C2F21A
S315200005F0000019464FF0120200F02EFA4FF00000CC
S3152000060000F00EFE0346C7F8A8304FF0000001F0B8
S315200006102FFA0346A7F8AE30B7F8AE304FF00000F9
S31520000620194600F07DFD0346C7F8B030D7F8B03044
S31520000630002B20DAD7F8B030C3F10003184601F0BA
S31520000640D5FD03461846434901F0D8FE0346184611
S3152000065001F0BEFC02460B463946CDE9002308468A
S315200006604FF0200147F2E872C2F20002D7F8A83014
S3152000067002F050F81CE0D7F8B00001F0B7FD0346B1
S315200006801846344901F0BAFE0346184601F0A0FC8C
S3152000069002460B463946CDE9002308464FF0200195
S315200006A047F2F872C2F20002D7F8A83002F032F808
S315200006B03B4648F22C60C2F20000194600F03EFA92
S315200006C04FF0030000F04CFE0346C7F8B4304FF05D
S315200006D0020000F045FE0346C7F8B8304FF001008F
S315200006E000F03EFE0346C7F8BC304FF0000000F095
S315200006F037FE0346C7F8C030D7F8B430012B04D1F3
S315200007006FF07043C7F8C4301EE0D7F8B830012B1D
S3152000071004D16FF0E043C7F8C43015E0D7F8BC30F9
S31520000720012B04D16FF04053C7F8C4300CE0D7F842
S31520000730C030012B04D16FF08053C7F8C43003E0DA
S315200007404FF07043C7F8C430D7F8C400FFF7A8FEAF
S315200007505BE700BF00007A4480B483B000AF7860C6
S31520000760FEE700BF80B485B000AFF860B9607A605C
S315200007703B604FF00003184607F11407BD4680BCC6
S31520000780704700BF80B584B000AF786048F29423EC
S31520000790C2F200031B68002B08D148F29423C2F250
S315200007A0000348F25862C2F200021A6048F294230B
S315200007B0C2F200031B68BB60EFF30883FB6048F2BC
S315200007C09423C2F200031A687B681A44FB689A4293
S315200007D00FD94FF000004FF0010147F69002C2F208
S315200007E000024FF01903FFF7BDFF4FF00100FFF79E
S315200007F0B3FF48F29423C2F200031A687B681A44B6
S3152000080048F29423C2F200031A60BB68184607F127
S315200008101007BD4680BD00BF80B483B000AF03463D
S31520000820FB804EF20013CEF20003B7F906204FEA02
S315200008305212F98801F01F014FF0010000FA01F170
S3152000084002F1600243F8221007F10C07BD4680BC76
S31520000850704700BF80B588B000AFF860B960134616
S31520000860FB714FF00103FB824FF00003BB61FA6876
S3152000087048F22C63C2F200039A4207D0FA6848F283
S315200008800463C2F200039A4200D000BEBB68002B6C
S3152000089000D100BE01F01CF9FA6848F22C63C2F2BE
S315200008A000039A422ED1FB684FF080421A60FB6803
S315200008B04FF084425A60FB684FF00A021A8147F6CD
S315200008C02453C2F200031B68BB6142F20003CEF23E
S315200008D0040342F20002CEF20402126B42F08002BE
S315200008E01A634FF00A00FFF797FF42F20003CEF299
S315200008F0040342F20002CEF20402126B22F08002BE
S315200009001A6331E0FA6840F20003C4F2010313606F
S31520000910FA6840F20003C4F220235360FB684FF0CC
S315200009200B021A8147F62853C2F200031B68BB61EB
S3152000093042F20003CEF2040342F20002CEF2040297
S31520000940126B42F480721A634FF00B00FFF764FFBC
S3152000095042F20003CEF2040342F20002CEF2040277
S31520000960126B22F480721A63FB681B684FF0000238
S315200009701A71BB68002B21D0BA69BB68B2FBF3F3AE
S31520000980FB61FB6903F00803002B06D0FB694FEAE5
S31520000990131303F10103FB6103E0FB694FEA131311
S315200009A0FB61FA694FF6FF739A4200D900BEFA69D5
S315200009B04FF6FF739A4201D8FB69FB82FB685B689E
S315200009C04FF00102C3F89C21FB681B68FA8A4FEAA4
S315200009D0122292B2D2B21A71FB681B68FA8AD2B27C
S315200009E01A70FB685B684FF00002C3F89C21FB6815
S315200009F01B68FA791A73FB681B684FF00E021A728D
S31520000A00FB685B684FF00002C3F81022FB684FF0CA
S31520000A1000021A61FB684FF00002DA60FB684FF0B3
S31520000A2000025A61FB684FF00002DA61FA6840F66C
S31520000A302953C2F200031362FB684FF000029A6149
S31520000A40FB684FF000025A62FB684FF000029A7270
S31520000A5007F12007BD4680BD80B489B000AFF8609D
S31520000A60B9607A604FF000033B61FA6848F22C6364
S31520000A70C2F200039A4207D0FA6848F20463C2F22F
S31520000A8000039A4200D000BEBB68002B00D100BEF6
S31520000A907B68002B00D100BEFA6848F22C63C2F2B4
S31520000AA000039A4206D0FA6848F20463C2F20003B1
S31520000AB09A423DD1BB68002B3AD07B68002B37D0B9
S31520000AC0FB681B681B7DFB76FB689A7AFB7E42EAF5
S31520000AD00303DAB2FB689A72FB7E03F02003002B35
S31520000AE023D04FF01003FB617B680F2B01D87B6866
S31520000AF0FB614FF000037B610EE0FB681B68B96861
S31520000B003A690A4412781A703B6903F101033B6182
S31520000B107B6903F101037B617A69FB699A42ECD315
S31520000B207A687B69C3EB02037B607B68002BC7D1A5
S31520000B3007F12407BD4680BC704700BF80B487B04C
S31520000B4000AF786039604FF00003BB607A6848F2E6
S31520000B502C63C2F200039A4207D07A6848F20463F3
S31520000B60C2F200039A4200D000BE3B68002B00D19F
S31520000B7000BE7A6848F22C63C2F200039A4206D07D
S31520000B807A6848F20463C2F200039A4238D13B687D
S31520000B90002B35D03A68BB6813441B783B612CE0A8
S31520000BA07B681B681B7DFB757B689A7AFB7D42EA16
S31520000BB00303DAB27B689A72FB7D03F02003002BD5
S31520000BC0EED04FF00003FB6011E07B681B683A69AA
S31520000BD0D2B21A70FB6803F10103FB60BB6803F114
S31520000BE00103BB603A68BB6813441B783B613B69D1
S31520000BF0002B02D0FB680F2BE7D93B69002BCFD106
S31520000C0007F11C07BD4680BC704700BF80B584B085
S31520000C1000AF78607A6848F22C63C2F200039A42E9
S31520000C2007D07A6848F20463C2F200039A4200D0E1
S31520000C3000BE7A6848F22C63C2F200039A4206D0BC
S31520000C407A6848F20463C2F200039A4267D17B684D
S31520000C501B681B7ADBB203F00F03FB73FB7B0C2BA9
S31520000C6054D801A252F823F09D0C00200D0D00202F
S31520000C70B90C00200D0D0020D50C00200D0D0020F4
S31520000C80F10C00200D0D00200D0D00200D0D002073
S31520000C900D0D00200D0D0020D50C00207B685B6A11
S31520000CA0002B00D100BE7B685B6A002B30D07B68AE
S31520000CB05B6A7868984732E07B681B6A002B00D114
S31520000CC000BE7B681B6A002B24D07B681B6A786871
S31520000CD0984724E07B68DB69002B00D100BE7B6847
S31520000CE0DB69002B18D07B68DB697868984716E0AB
S31520000CF07B689B69002B00D100BE7B689B69002B1B
S31520000D000CD07B689B697868984708E000BE06E0AF
S31520000D1000BF04E000BF02E000BF00E000BF07F113
S31520000D201007BD4680BD00BF80B487B000AF786095
S31520000D307A6848F22C63C2F200039A4207D07A6896
S31520000D4048F20463C2F200039A4200D000BE7B68D8
S31520000D50DB68002B00D100BE7B681B69002B00D10D
S31520000D6000BE7A6848F22C63C2F200039A4206D08B
S31520000D707A6848F20463C2F200039A4252D17B6831
S31520000D80DB68002B4ED07B681B69002B4AD07B6822
S31520000D901B681B7DFB727B689A7AFB7A42EA030307
S31520000DA0DAB27B689A72FB7A03F02003002B29D0F3
S31520000DB04FF010033B617B681A697B685B69C3EB64
S31520000DC002037B617B690F2B01D87B693B614FF066
S31520000DD00003FB6012E07B681B687A68D1687A683A
S31520000DE052690A4412781A707B685B6903F1010222
S31520000DF07B685A61FB6803F10103FB60FA683B6973
S31520000E009A42E8D37B685A697B681B699A4209D162
S31520000E107B684FF000021A617B685B684FF0000226
S31520000E20C3F8842007F11C07BD4680BC704700BF6D
S31520000E30684620F007018D4689B500AF48F22C6040
S31520000E40C2F20000FFF7E2FE4FF00A00FFF7E4FCD3
S31520000E50BD46BDE889408546704700BF684620F0FC
S31520000E6007018D4689B500AF48F20460C2F2000042
S31520000E70FFF7CCFE4FF00B00FFF7CEFCBD46BDE8DA
S31520000E8089408546704700BF80B483B000AF0346D3
S31520000E90FB804EF20013CEF20003B7F906204FEA8C
S31520000EA05212F98801F01F014FF0010000FA01F1FA
S31520000EB002F1600243F8221007F10C07BD4680BC00
S31520000EC0704700BF80B582B000AF42F20003CEF279
S31520000ED0040342F20002CEF20402126B42F4804274
S31520000EE01A634FF000037B600EE07A6847F62C13F6
S31520000EF0C2F2000333F812301BB21846FFF7C4FFC4
S31520000F007B6803F101037B607B681F2BEDD942F2DE
S31520000F100003CEF2040342F20002CEF20402126B68
S31520000F2022F480421A6307F10807BD4680BD00BF40
S31520000F3080B485B000AF03463960FB71FB79FB6056
S31520000F40FB681F2B00D900BEFB681F2B08D8FA6848
S31520000F5047F6AC03C2F2000353F822303A681A600F
S31520000F6007F11407BD4680BC704700BF80B487B028
S31520000F7000AF40F20003C4F20203D3F8C830FB608E
S31520000F8040F20003C4F202034FF00002C3F8C82067
S31520000F904FF00003FB7139E0FB794FEA53037B7472
S31520000FA040F20002C4F20202797C0B464FEA430368
S31520000FB00B444FEA0313134403F508731B79BB74E0
S31520000FC0FB7903F00103FB74FB7C002B0DD0F97930
S31520000FD0BB7C4FEA5313DBB21A4602F0030248F2F7
S31520000FE09823C2F200035A540CE0F979BB7C4FEAED
S31520000FF05303DBB21A4602F0030248F29823C2F2E8
S3152000100000035A54FB7903F10103FB71FB79092B89
S31520001010C2D94FF00003BB6073E0BA6847F63C5371
S31520001020C2F200034FEA021213441B79BB75BA7D44
S3152000103047F69C13C2F200039B5C3B75BA7D47F6CC
S315200010406C13C2F200039B5C012B07D0022B27D026
S31520001050002B47D14FF00003FB7547E03B7DFF2B6C
S3152000106000D100BE40F20002C4F20202397D0B46D6
S315200010704FEA43030B444FEA0313134403F5087363
S315200010801B7A7B757B7D03F00103DBB2002B03D03B
S315200010904FF00003FB7529E04FF00103FB7525E0B7
S315200010A03B7DFF2B00D100BE40F20002C4F20202BB
S315200010B0397D0B464FEA43030B444FEA031313448F
S315200010C003F50A731B797B757B7D03F00103DBB285
S315200010D0002B03D04FF00003FB7507E04FF002030F
S315200010E0FB7503E000BE4FF00003FB75BA6848F2BB
S315200010F0A423C2F20003F97D9954BB6803F10103CE
S31520001100BB60BB68002B88DD40F20003C4F20203FB
S31520001110FA68C3F8C82007F11C07BD4680BC704793
S3152000112080B48DB000AF02460B46FA71BB80FA79C7
S3152000113047F63C53C2F200034FEA021213441B79CE
S31520001140BB74BB7C4FEA1313FB74BA7C47F6CC13F3
S31520001150C2F200039B5CFF2B1CD1FB7C47F634526A
S31520001160C2F200024FEA830313445B88BA8802FB6B
S3152000117003F240F20113C0F21003A3FB0213C3EBE8
S3152000118002024FEA520213444FEAD3237B617B6962
S31520001190FB603DE0BA7C47F6FC13C2F200039B5C81
S315200011A0FB76FA7E48F29823C2F200039B5CBB765C
S315200011B0BB88BB6240F6FF73FB62BA7E47F62C23E0
S315200011C0C2F200039B5C3B62BA7E47F63023C2F232
S315200011D0000333F812301BB2FB61FB7C47F6345216
S315200011E0C2F200024FEA830313445B887B62FA6AE9
S315200011F0BB6AC3EB02037A6A396A01FB02F202FB7D
S3152000120003F2FB6A92FBF3F3FA69C3EB0203FB607A
S31520001210FB68184607F13407BD4680BC704700BFFF
S3152000122080B485B000AF0346FB714FF00003FB602E
S31520001230FB79002B09D1FA7947F63C53C2F2000319
S315200012404FEA021213441B68FB60FB68184607F13D
S315200012501407BD4680BC704780B483B000AF0346F8
S31520001260FB804EF20013CEF20003B7F906204FEAB8
S315200012705212F98801F01F014FF0010000FA01F126
S3152000128002F1600243F8221007F10C07BD4680BC2C
S31520001290704700BF80B483B000AF4FF00003BB712E
S315200012A014E0BA7948F24833C2F200034FF0000145
S315200012B043F82210BA7948F2A823C2F200034FF06D
S315200012C004019954BB7903F10103BB71BB799F2BB0
S315200012D0E7D94FF00003BB711FE0BA7947F64C53AC
S315200012E0C2F200034FEA021213441B799F2B00D946
S315200012F000BEBA7947F64C53C2F200034FEA0212F7
S3152000130013441B791A4648F2A823C2F20003B9797E
S315200013109954BB7903F10103BB71BB79032BDCD94B
S315200013204FF00003FB710CE0FA7948F2CC53C2F27D
S3152000133000034FF0000143F82210FB7903F101036B
S31520001340FB71FB79002BEFD048F2C853C2F20003A1
S315200013504FF000021A6007F10C07BD4680BC7047AB
S3152000136080B489B000AF0346FB714FF0FF33BB60FA
S31520001370FB79032B00D900BEFB79032B31D8FA79F0
S3152000138047F64C53C2F200034FEA021213441B796C
S31520001390FB73FB7B9F2B24D8FB7B03F01F033B6156
S315200013A0FB7B4FEA5313DBB27B613B694FF00102B3
S315200013B002FA03F3BB617A6947F63823C2F20003C7
S315200013C053F822301A68BB6902EA0303FB61FB6902
S315200013D0002B03D04FF00103BB6002E04FF0000367
S315200013E0BB60BB68184607F12407BD4680BC704722
S315200013F080B58AB000AF0346FB71FB794FF001023E
S3152000140002FA03F33B614FF00003FB73A0E0FA7B83
S3152000141047F64C23C2F2000353F822301B68BB6107
S31520001420FA7B47F66023C2F2000353F822301B688A
S31520001430FB613A69BB6902EA0302FB6902EA03031C
S315200014403B623B6A002B7FD0FB7B4FEA4313DAB229
S31520001450FB791344FB75FA7D48F2A823C2F20003F8
S315200014609B5C87F82630FA7D48F24833C2F20003A7
S3152000147053F82230002B0AD0FA7D48F24833C2F2C4
S31520001480000353F8223097F826201046984797F8FD
S31520001490263047F64C52C2F200024FEA430303F1CC
S315200014A001034FEAC30313441B7987F8273097F8C3
S315200014B02730002B15D197F8272048F2CC53C2F2BB
S315200014C0000353F82230002B0BD097F8272048F240
S315200014D0CC53C2F2000353F8223097F82620104648
S315200014E0984748F2C853C2F200031B68002B0BD062
S315200014F048F2C853C2F200031B6897F8261097F8E3
S315200015002720084611469847FA7B47F67423C2F2ED
S31520001510000353F82220F97B47F67423C2F2000316
S3152000152053F8213019683B6941EA03031360FA7BBB
S3152000153047F67423C2F2000353F822301B68BB60BF
S31520001540BB6803F10103BB60FB7B03F10103FB7363
S31520001550FB7B042B7FF65BAF07F12807BD4680BDDA
S31520001560684620F007018D4689B500AF4FF0000090
S31520001570FFF73EFF4FF07600FFF76EFEBD46BDE853
S3152000158089408546704700BF684620F007018D4692
S3152000159089B500AF4FF00100FFF72AFF4FF0770023
S315200015A0FFF75AFEBD46BDE889408546704700BF15
S315200015B0684620F007018D4689B500AF4FF002003E
S315200015C0FFF716FF4FF07800FFF746FEBD46BDE851
S315200015D089408546704700BF684620F007018D4642
S315200015E089B500AF4FF00300FFF702FF4FF07900F7
S315200015F0FFF732FEBD46BDE889408546704700BFED
S31520001600684620F007018D4689B500AF4FF00400EB
S31520001610FFF7EEFE4FF07A00FFF71EFEBD46BDE84F
S3152000162089408546704700BF684620F007018D46F1
S3152000163089B500AF4FF00500FFF7DAFE4FF07B00CB
S31520001640FFF70AFEBD46BDE889408546704700BFC4
S31520001650684620F007018D4689B500AF4FF0060099
S31520001660FFF7C6FE4FF07C00FFF7F6FDBD46BDE84E
S3152000167089408546704700BF684620F007018D46A1
S3152000168089B500AF4FF00700FFF7B2FE4FF07D009F
S31520001690FFF7E2FDBD46BDE889408546704700BF9D
S315200016A0684620F007018D4689B500AF4FF0080047
S315200016B0FFF79EFE4FF07E00FFF7CEFDBD46BDE84C
S315200016C089408546704700BF684620F007018D4651
S315200016D089B500AF4FF00900FFF78AFE4FF07F0073
S315200016E0FFF7BAFDBD46BDE889408546704700BF75
S315200016F0684620F007018D4689B500AF4FF00A00F5
S31520001700FFF776FE4FF08000FFF7A6FDBD46BDE849
S3152000171089408546704700BF684620F007018D4600
S3152000172089B500AF4FF00B00FFF762FE4FF0810046
S31520001730FFF792FDBD46BDE889408546704700BF4C
S31520001740684620F007018D4689B500AF4FF00C00A2
S31520001750FFF74EFE4FF08200FFF77EFDBD46BDE847
S3152000176089408546704700BF684620F007018D46B0
S3152000177089B500AF4FF00D00FFF73AFE4FF083001A
S31520001780FFF76AFDBD46BDE889408546704700BF24
S31520001790684620F007018D4689B500AF4FF00E0050
S315200017A0FFF726FE4FF08400FFF756FDBD46BDE845
S315200017B089408546704700BF684620F007018D4660
S315200017C089B500AF4FF00F00FFF712FE4FF08500EE
S315200017D0FFF742FDBD46BDE889408546704700BFFC
S315200017E0684620F007018D4689B500AF4FF01000FE
S315200017F0FFF7FEFD4FF08600FFF72EFDBD46BDE844
S3152000180089408546704700BF684620F007018D460F
S3152000181089B500AF4FF01100FFF7EAFD4FF08700C2
S31520001820FFF71AFDBD46BDE889408546704700BFD3
S31520001830684620F007018D4689B500AF4FF01200AB
S31520001840FFF7D6FD4FF08800FFF706FDBD46BDE841
S3152000185089408546704700BF684620F007018D46BF
S3152000186089B500AF4FF01300FFF7C2FD4FF0890096
S31520001870FFF7F2FCBD46BDE889408546704700BFAC
S31520001880684620F007018D4689B500AF4FF0140059
S31520001890FFF7AEFD4FF08A00FFF7DEFCBD46BDE840
S315200018A089408546704700BF684620F007018D466F
S315200018B089B500AF4FF01500FFF79AFD4FF08B006A
S315200018C0FFF7CAFCBD46BDE889408546704700BF84
S315200018D0684620F007018D4689B500AF4FF0160007
S315200018E0FFF786FD4FF08C00FFF7B6FCBD46BDE83E
S315200018F089408546704700BF684620F007018D461F
S3152000190089B500AF4FF01700FFF772FD4FF08D003D
S31520001910FFF7A2FCBD46BDE889408546704700BF5B
S31520001920684620F007018D4689B500AF4FF01800B4
S31520001930FFF75EFD4FF08E00FFF78EFCBD46BDE83B
S3152000194089408546704700BF684620F007018D46CE
S3152000195089B500AF4FF01900FFF74AFD4FF08F0011
S31520001960FFF77AFCBD46BDE889408546704700BF33
S31520001970684620F007018D4689B500AF4FF01A0062
S31520001980FFF736FD4FF09000FFF766FCBD46BDE839
S3152000199089408546704700BF684620F007018D467E
S315200019A089B500AF4FF01B00FFF722FD4FF09100E5
S315200019B0FFF752FCBD46BDE889408546704700BF0B
S315200019C0684620F007018D4689B500AF4FF01C0010
S315200019D0FFF70EFD4FF09200FFF73EFCBD46BDE837
S315200019E089408546704700BF684620F007018D462E
S315200019F089B500AF4FF01D00FFF7FAFC4FF09300BA
S31520001A00FFF72AFCBD46BDE889408546704700BFE2
S31520001A10684620F007018D4689B500AF4FF01E00BD
S31520001A20FFF7E6FC4FF09400FFF716FCBD46BDE835
S31520001A3089408546704700BF684620F007018D46DD
S31520001A4089B500AF4FF01F00FFF7D2FC4FF095008D
S31520001A50FFF702FCBD46BDE889408546704700BFBA
S31520001A6080B500AFFFF716FCFFF780FA80BD00BFF8
S31520001A7080B485B000AF0346FB71FA7947F63C5334
S31520001A80C2F200034FEA02121344DB88FB8140F2C4
S31520001A900003C4F20203FA8902F5C06253F8223029
S31520001AA04FEA1343BB81BB891BB2002B02DA4FF0EE
S31520001AB00003BB81BB89184607F11407BD4680BCCD
S31520001AC0704700BF80B400AFBD4680BC704700BFE2
S31520001AD080B58AB000AF47F68823C2F20003BC4621
S31520001AE00FCB8CE80F0042F20003CEF204039B6C6E
S31520001AF04FEA930303F003034FEA830307F1280217
S31520001B00134453F8283C3B6142F20003CEF204030F
S31520001B109B6C4FEA131303F003034FEA830307F189
S31520001B202802134453F8283C7B6142F20003CEF28C
S31520001B3004039B6C4FEA931303F003034FEA8303DA
S31520001B4007F12802134453F8283CBB6142F20003F4
S31520001B50CEF20403DB6C4FEA132303F01F033B6230
S31520001B6042F20003CEF20403DB6C4FEA533303F058
S31520001B7001037B623B6A03F10103FB617B6A002B55
S31520001B8003D0FB694FEA4303FB6100F049F80246A4
S31520001B9047F62053C2F200031A6047F62053C2F2DA
S31520001BA000031A683B69B2FBF3F247F62453C2F2EC
S31520001BB000031A6047F62053C2F200031A687B69B5
S31520001BC0B2FBF3F247F62853C2F200031A6047F637
S31520001BD02053C2F200031A68BB69B2FBF3F247F640
S31520001BE02C53C2F200031A6047F62053C2F20003B8
S31520001BF01A68FB69B2FBF3F247F63053C2F20003D0
S31520001C001A6047F62053C2F200031A6847F61C539F
S31520001C10C2F200031A6007F12807BD4680BD00BF47
S31520001C2080B48BB000AF4FF000037B6040F61C03FE
S31520001C30C6F20803BB6040F23023C6F20803FB60FD
S31520001C40FB681B6823F070433B613A6941F2CF136E
S31520001C50C0F2A1539A4208D14EF62C73C6F2010364
S31520001C607B617B691B687B603DE0BB681A6844F238
S31520001C704133C4F654439A4235D140F64003C6F266
S31520001C800803BB61BB691B68FB61FB6923F07F43CB
S31520001C90FB61FA6940F20033C0F201039A4222D96D
S31520001CA0FA694FF6FF73C0F201039A4208D841F24F
S31520001CB02C63C6F208033B623B6A1B687B6012E01A
S31520001CC0FA694FF6FF73C0F202039A4208D841F62A
S31520001CD0AC63C6F208037B627B6A1B687B6002E00A
S31520001CE04FF000037B607B68002B05D100BE47F6D2
S31520001CF04003C0F27D137B607B68184607F12C07F2
S31520001D00BD4680BC704700BF81F0004102E000BFA5
S31520001D1083F0004330B54FEA41044FEA430594EA85
S31520001D20050F08BF90EA020F1FBF54EA000C55EAC0
S31520001D30020C7FEA645C7FEA655C00F0E2804FEA91
S31520001D405454D4EB5555B8BF6D420CDD2C4480EA73
S31520001D50020281EA030382EA000083EA010180EAA3
S31520001D60020281EA0303362D88BF30BD11F0004FF1
S31520001D704FEA01314FF4801C4CEA113102D0404227
S31520001D8061EB410113F0004F4FEA03334CEA133362
S31520001D9002D0524263EB430394EA050F00F0A7807A
S31520001DA0A4F10104D5F1200E0DDB02FA0EFC22FA75
S31520001DB005F2801841F1000103FA0EF2801843FA69
S31520001DC005F359410EE0A5F120050EF1200E012A5A
S31520001DD003FA0EFC28BF4CF0020C43FA05F3C01898
S31520001DE051EBE37101F0004507D54FF0000EDCF111
S31520001DF0000C7EEB00006EEB0101B1F5801F1BD3BA
S31520001E00B1F5001F0CD349085FEA30004FEA3C0CBD
S31520001E1004F101044FEA445212F5800F80F09A80B3
S31520001E20BCF1004F08BF5FEA500C50F1000041EBB7
S31520001E30045141EA050130BD5FEA4C0C404141EBBB
S31520001E40010111F4801FA4F10104E9D191F0000FE2
S31520001E5004BF01460020B1FA81F308BF2033A3F165
S31520001E600B03B3F120020CDA0C3208DD02F1140C5C
S31520001E70C2F10C0201FA0CF021FA02F10CE002F197
S31520001E801402D8BFC2F1200C01FA02F120FA0CFC90
S31520001E90DCBF41EA0C019040E41AA2BF01EB0451D9
S31520001EA0294330BD6FEA04041F3C1CDA0C340EDCD7
S31520001EB004F11404C4F1200220FA04F001FA02F31A
S31520001EC040EA030021FA04F345EA030130BDC4F1D8
S31520001ED00C04C4F1200220FA02F001FA04F340EACD
S31520001EE00300294630BD21FA04F0294630BD94F07E
S31520001EF0000F83F4801306BF81F480110134013D65
S31520001F004EE77FEA645C18BF7FEA655C29D094EAD5
S31520001F10050F08BF90EA020F05D054EA000C04BF53
S31520001F201946104630BD91EA030F1EBF002100203E
S31520001F3030BD5FEA545C05D14000494128BF41F0DD
S31520001F40004130BD14F580043CBF01F5801130BD41
S31520001F5001F0004545F0FE4141F470014FF00000CC
S31520001F6030BD7FEA645C1ABF194610467FEA655C7D
S31520001F701CBF0B46024650EA013406BF52EA03351F
S31520001F8091EA030F41F4002130BD00BF90F0000F0D
S31520001F9004BF0021704730B54FF4806404F1320449
S31520001FA04FF000054FF0000150E700BF90F0000F02
S31520001FB004BF0021704730B54FF4806404F1320429
S31520001FC010F0004548BF40424FF000013EE700BFF9
S31520001FD042004FEAE2014FEA31014FEA02701FBF89
S31520001FE012F07F4393F07F4F81F06051704792F05B
S31520001FF0000F14BF93F07F4F704730B54FF46074D5
S3152000200001F0004521F0004120E700BF50EA01021F
S3152000201008BF704730B54FF000050AE050EA0102CC
S3152000202008BF704730B511F0004502D5404261EB3C
S3152000203041014FF4806404F132045FEA915C3FF47D
S31520002040DCAE4FF003025FEADC0C18BF03325FEA16
S31520002050DC0C18BF033202EBDC02C2F1200300FACB
S3152000206003FC20FA02F001FA03FE40EA0E0021FAF0
S3152000207002F11444C1E600BF80F0004002E000BF38
S3152000208081F0004142001FBF5FEA410392EA030F3D
S315200020907FEA226C7FEA236C6AD04FEA1262D2EB87
S315200020A01363C1BFD218414048404140B8BF5B428C
S315200020B0192B88BF704710F0004F40F4000020F025
S315200020C07F4018BF404211F0004F41F4000121F03B
S315200020D07F4118BF494292EA030F3FD0A2F1010285
S315200020E041FA03FC10EB0C00C3F1200301FA03F1C3
S315200020F000F0004302D5494260EB4000B0F5000FE6
S3152000210013D3B0F1807F06D340084FEA310102F1A4
S315200021100102FE2A51D2B1F1004F40EBC25008BF56
S3152000212020F0010040EA03007047490040EB000020
S3152000213010F4000FA2F10102EDD1B0FA80FCACF14F
S31520002140080CB2EB0C0200FA0CF0AABF00EBC2504E
S3152000215052421843BCBFD0401843704792F0000F3C
S3152000216081F4000106BF80F400000132013BB5E78F
S315200021704FEA41037FEA226C18BF7FEA236C21D005
S3152000218092EA030F04D092F0000F08BF084670476A
S3152000219090EA010F1CBF0020704712F07F4F04D138
S315200021A0400028BF40F00040704712F100723CBF4B
S315200021B000F50000704700F0004343F0FE4040F475
S315200021C0000070477FEA226216BF08467FEA236333
S315200021D00146420206BF5FEA412390EA010F40F41E
S315200021E0800070474FF0000304E000BF10F000436A
S315200021F048BF40425FEA000C08BF704743F0964351
S3152000220001464FF000001CE050EA010208BF70476B
S315200022104FF000030AE000BF50EA010208BF7047F2
S3152000222011F0004302D5404261EB41015FEA010C07
S3152000223002BF84460146002043F0B64308BFA3F1FF
S315200022408053A3F50003BCFA8CF2083AA3EBC253E1
S3152000225010DB01FA02FC634400FA02FCC2F1200200
S31520002260BCF1004F20FA02F243EB020008BF20F037
S315200022700100704702F1200201FA02FCC2F120029D
S3152000228050EA4C0021FA02F243EB020008BF20EA92
S31520002290DC7070474FF0FF0C1CEAD0521EBF1CEAC0
S315200022A0D15392EA0C0F93EA0C0F6FD01A4480EAAE
S315200022B0010C400218BF5FEA41211ED04FF0006397
S315200022C043EA501043EA5111A0FB01310CF00040C3
S315200022D0B1F5000F3EBF490041EAD3715B0040EAE9
S315200022E0010062F17F02FD2A1DD8B3F1004F40EBB9
S315200022F0C25008BF20F00100704790F0000F0CF08C
S31520002300004C08BF49024CEA502040EA51207F3A4F
S31520002310C2BFD2F1FF0340EAC250704740F400002A
S315200023204FF00003013A5DDC12F1190FDCBF00F01B
S3152000233000407047C2F10002410021FA02F1C2F1C9
S31520002340200200FA02FC5FEA310040F1000053EA65
S315200023504C0308BF20EADC70704792F0000F00F0B3
S31520002360004C02BF400010F4000F013AF9D040EAB9
S315200023700C0093F0000F01F0004C02BF490011F44D
S31520002380000F013BF9D041EA0C018FE70CEAD1534B
S3152000239092EA0C0F18BF93EA0C0F0AD030F0004CCB
S315200023A018BF31F0004CD8D180EA010000F000407F
S315200023B0704790F0000F17BF90F0004F084691F03D
S315200023C0000F91F0004F14D092EA0C0F01D1420277
S315200023D00FD193EA0C0F03D14B0218BF084608D140
S315200023E080EA010000F0004040F0FE4040F400008A
S315200023F0704740F0FE4040F4400070474FF0FF0C1D
S315200024001CEAD0521EBF1CEAD15392EA0C0F93EA63
S315200024100C0F69D0A2EB030280EA010C49024FEAB5
S31520002420402037D04FF0805343EA111143EA10136E
S315200024300CF000408B4238BF5B0042F17D024FF426
S31520002440000C8B4224BF5B1A40EA0C00B3EB510F01
S3152000245024BFA3EB510340EA5C00B3EB910F24BFEA
S31520002460A3EB910340EA9C00B3EBD10F24BFA3EB6F
S31520002470D10340EADC001B0118BF5FEA1C1CE0D137
S31520002480FD2A3FF650AF8B4240EBC25008BF20F0EA
S31520002490010070470CF0004C4CEA50207F32C2BF3E
S315200024A0D2F1FF0340EAC250704740F400004FF0DB
S315200024B00003013A37E792F0000F00F0004C02BF0C
S315200024C0400010F4000F013AF9D040EA0C0093F0D6
S315200024D0000F01F0004C02BF490011F4000F013B30
S315200024E0F9D041EA0C0195E70CEAD15392EA0C0F98
S315200024F008D142027FF47DAF93EA0C0F7FF470AFD0
S31520002500084676E793EA0C0F04D14B023FF44CAF12
S3152000251008466EE730F0004C18BF31F0004CCAD1A7
S3152000252030F000427FF45CAF31F000437FF43CAFE3
S315200025305FE700BF70B547F6085647F60855C2F262
S315200025400006C2F20005761BB61006D0002455F808
S31520002550243001349847A642F9D847F6085547F65D
S315200025600C56C2F20005C2F20006761B05F0C0FB2F
S31520002570B61006D0002455F8243001349847A642D8
S31520002580F9D870BD032A2DE9F0070BD83AB10023FC
S3152000259011F803C000F803C001339342F8D1BDE817
S315200025A0F007704782180C46034603E014F8011C16
S315200025B003F8011C03F003061946A446013301342F
S315200025C0002EF3D11CF00304634608BFC1EB020CB6
S315200025D068D06542C4F1040A0CEB050733464FEA7E
S315200025E0CA0A5CF805604FEAC408551A08E057F88D
S315200025F0044F264604FA0AF449EA0404CC5004336C
S315200026005C18032D26FA08F9A5F104050CEB030640
S31520002610EDDC002302E0F15CE1540133191991420B
S31520002620F9D3BCE753F8404C41F8404C53F83C4CA6
S3152000263041F83C4C53F8384C41F8384C53F8344C5C
S3152000264041F8344C53F8304C41F8304C53F82C4C6C
S3152000265041F82C4C53F8284C41F8284C53F8244C7C
S3152000266041F8244C53F8204C41F8204C53F81C4C8C
S3152000267041F81C4C53F8184C41F8184C53F8144C9C
S3152000268041F8144C53F8104C41F8104C53F80C4CAC
S3152000269041F80C4C53F8084C41F8084C53F8044CBC
S315200026A041F8044C1C460D4640334031BCF13F0FE7
S315200026B0ACF1400CB6DC21462B46541B0FE051F8FA
S315200026C0105C43F8105C51F80C5C43F80C5C51F834
S315200026D0085C43F8085C51F8045C43F8045C0F2C52
S315200026E00D469C4601F1100103F11003A4F11004DC
S315200026F0E5DCCCEB0201002303E0EC584CF8034068
S3152000270004335E19032903EB0C04A1F10401F4DC64
S315200027107FE700BF0CB447F68C53F0B5C2F2000336
S315200027200C1E9DB005461E6828DB23AF229A3B4629
S31520002730304601A90CBFA44604F1FF3C4FF4027EAB
S315200027400595ADF810E04FF0FF3ECDF818C0019585
S31520002750ADF812E0CDF80CC01B9700F0D7F8B0F119
S31520002760FF3F08DB14B1019B00221A701DB0BDE8A3
S31520002770F04002B070478B233360F3E78B234FF092
S31520002780FF303360F2E700BF08B4F0B5141E9CB0EA
S3152000279006460D4627DB22AF219A3B4601A90CBFF0
S315200027A0A44604F1FF3C4FF4027E0595ADF810E0F7
S315200027B04FF0FF3ECDF818C00195ADF812E0CDF8E8
S315200027C00CC01B9700F0A2F8B0F1FF3F08DB14B154
S315200027D0019B00221A701CB0BDE8F04001B0704782
S315200027E08B233360F3E78B2303604FF0FF30F2E750
S315200027F02DE9F04F85B092460C46039090681768F5
S31520002800002800F081804FF000090B684D46002D0E
S3152000281054D0A668B542B0463EBF18462E46A846B6
S315200028203CD3A08910F4906F08BF184636D0626951
S31520002830216902EB420B5B1A03F1010C0BEBDB7BEC
S31520002840AC444FEA6B0BE3455A463CBFE3465A4637
S3152000285010F4806F37D011460398019302F0F6FBEF
S31520002860019B00283BD01A46216901930290FFF76D
S3152000287089FEA289019BDDF808C022F4906242F00D
S315200028808002A2812E46A846C3EB0B020CEB030066
S31520002890A260C4F810C02060C4F814B0424649466D
S315200028A002F0E0FEA2682368961BA660DAF80820EC
S315200028B043442360551BCAF80850FDB1D7F8009051
S315200028C07D680837A3E70398019303F0D7FB019BA4
S315200028D084460028D6D10398216902F08DFA039AFE
S315200028E00C234FF0FF3013600023A289CAF804306E
S315200028F042F04002CAF80830A28102E02846CAF80F
S31520002900045005B0BDE8F08F5060FAE72DE9F04F8E
S31520002910C5B00E469A461546099002F053FBB38978
S3152000292013F0800F00681B9003D03369002B01F051
S315200029308C800DF17409B3464C4600221092002378
S31520002940189217921A920D922DAA199328320DF1E8
S31520002950F703169207930023CDF8DC90389339932A
S315200029602B78B3F1250218BF0122002B0CBF0022C1
S3152000297002F0010202B32E4616F8013F1A1E18BFB6
S315200029800122252B0CBF002202F00102002AF3D1DE
S31520002990771B08BF35460FD06760389B399A0133BD
S315200029A02560D219072B3992389379DC08340D9893
S315200029B03546C0190D903378002B00F0378700215B
S315200029C04FF00002CDF828A06B1C0C914FF0FF3879
S315200029D08DF80F218A466A782B204FF0200C5D1C3B
S315200029E0A2F12003582B00F21982DFE813F0290206
S315200029F017021702350217021702170217021702CB
S31520002A0017023C0248021702C802CF021702EF0241
S31520002A10F602F602F602F602F602F602F602F602D0
S31520002A20F6021702170217021702170217021702D9
S31520002A301702170217024F0288021702880217028E
S31520002A40170217021702C10217021702EE03170216
S31520002A501702170217021702930317021702AD0374
S31520002A601702170217021702170217021702170278
S31520002A7017021702C703D8038802880288020B03AD
S31520002A80D803170217020F031702190329033E035F
S31520002A908C03170259031702840317021702EA0050
S31520002AA00998594637AAFFF7A3FE00287CD14C4641
S31520002AB07DE71899012940F35284119A0123636016
S31520002AC0389B2260399A013338930132072B399289
S31520002AD000F39685083401236360389B399A0133C5
S31520002AE01B980132072B39922060389300F37D859D
S31520002AF00834109800220023199904F02BFA002894
S31520002B0040F003851899119B4A1E6260591C389B18
S31520002B1021603999013338938A18072B399200F3AB
S31520002B202F8408341A9A1A9862603EAA389B22602B
S31520002B30399A013338931218072B399200F34F81B3
S31520002B4004F108031AF0040F00F056810C990B9A31
S31520002B508E1A002E40F35081102E47F61037D8BF1C
S31520002B60C2F2000740F3DE831024C2F200070DF103
S31520002B70DC08DDF824A003E0103E102E40F3D283BB
S31520002B805C60389A399901321F601031072A3991D1
S31520002B9003F108033892EFDD504659464246FFF7C7
S31520002BA027FE4B460028E7D05E46B3890D9813F0E2
S31520002BB0400F18BF4FF0FF300D900D9845B0BDE87F
S31520002BC0F08F1AF0200F47F65430C2F2000014920C
S31520002BD0179000F0C3820A99CB1D23F0070303F157
S31520002BE008020A92D3E9006756EA07010CBF0022C1
S31520002BF001221AEA020F40F0BC8402234FF00001A2
S31520002C008DF80F11B8F1000FA8BF2AF0800AB8F18D
S31520002C10000F18BF42F00102002A00F06081012B4C
S31520002C2000F03484022B00F017841699CDF82C80FE
S31520002C3011914FEAD6084FEAD70C48EA477806F0B2
S31520002C40070067464646303056EA070201F8010D6E
S31520002C50EFD11AF0010FDDF82C80119140F0DB84C2
S31520002C60169B5B1A0E930E9BCDF854804345B8BF36
S31520002C7043460B939DF80F3113B10B9901310B91FC
S31520002C801AF00202139202D00B9B02330B931AF016
S31520002C908400129038D10C990B9A8E1A002E33DDAF
S31520002CA0102E47F61037D8BFC2F2000720DD4FF0AE
S31520002CB01008C2F2000702E0103E102E18DDC4F8FC
S31520002CC00480389B399A013327601032072B3992BA
S31520002CD004F108043893EFDD0998594637AA4C4683
S31520002CE0FFF786FD00287FF45FAF103E102EE6DC4E
S31520002CF06660389B27605A1C399B38929B19072A95
S31520002D00399300F3F78308349DF80F3173B101230B
S31520002D106360389B43AA03322260399A0133389381
S31520002D200132072B399200F340830834139B6BB191
S31520002D3002236360389B43AA2260399A0133389371
S31520002D400232072B399200F33A83083412988028EE
S31520002D5000F0B28215980E9BC61A002E2EDD102E7C
S31520002D60A74FC8BF4FF0100803DC1BE0103E102E03
S31520002D7018DDC4F80480389B399A01332760103255
S31520002D80072B399204F108043893EFDD0998594648
S31520002D9037AA4C46FFF72CFD00287FF405AF103EDE
S31520002DA0102EE6DC6660389B27605A1C399B3892C9
S31520002DB09B19072A399300F3EE8208341AF4807F90
S31520002DC040F019820E99119A6160389B2260399AD7
S31520002DD0013338935218072B39927FF7B1AE0998F1
S31520002DE0594637AAFFF704FD00287FF4DDAE1AF016
S31520002DF0040F4B467FF4AAAE399B0D980B9A0C997B
S31520002E008A42ACBF801840180D90002B40F09E825D
S31520002E100023DDF828A038934C46A1E51492002A19
S31520002E2000F0048501208DF8B4204FF000012DAA72
S31520002E300B908DF80F1111920E90002115911FE71E
S31520002E409DF80F31002B40F00C840A992B468DF803
S31520002E500FC12A780A91C2E50A994AF0010A2A780E
S31520002E602B460A91BBE50A9B0A9A1B68111D002B6B
S31520002E700C93C0F2B2852A782B460A91AFE50A99BF
S31520002E802B468DF80F012A780A91A8E54AF0100AF8
S31520002E9014921AF0200F00F087810A98C31D23F0A0
S31520002EA0070303F108010A91D3E90067002E77F1A1
S31520002EB00000C0F2768356EA07014FF001030CBFEB
S31520002EC000220122B8F1000FA8BF2AF0800AB8F12B
S31520002ED0000F18BF42F00102002A7FF4A0AE002B9B
S31520002EE040F0E5811AF0010F00F0E18130238DF8E2
S31520002EF0DB302DAB012027330E901193B3E61AF069
S31520002F00080F149200F0BF830A98C31D23F007030D
S31520002F1003F108010A915E681F68199610973846D2
S31520002F20314603F085FA0346002800F0938438469C
S31520002F3000220023314604F017F8002840F01584BB
S31520002F409DF80F31032047F6483247F644310B905F
S31520002F501498C2F20001C2F200022AF0800A472821
S31520002F60D8BF0A460321119200220E91159283E6BC
S31520002F700A994AF0080A2A782B460A912FE50A99D7
S31520002F802A784AF0040A2B460A9128E52B4613F89C
S31520002F90012B2A2A00F0CF86A2F13001092988BF09
S31520002FA04FF0000810D802354FF0000815F8012C14
S31520002FB008EB88082B46013501EB4808A2F13001C1
S31520002FC00929F3D948EAE8781D4609E50A994AF01D
S31520002FD0800A2A782B460A9101E5A2F130010026C3
S31520002FE02B4606EB860613F8012B01EB4606A2F1CB
S31520002FF030011D460929F3D90C961D46F0E400BF81
S31520003000207B00204AF0400A0A9934E72A786C2A65
S3152000301000F018840A994AF0100A2B460A91DEE439
S315200030201AF0200F00F023830A990D9A0B68104698
S315200030304FEAE0710A9AC3E9000102F1040A8FE41B
S315200030401AF02003149200F0C7800A9BDA1D002391
S3152000305022F0070202F108000A90D2E9006756EA38
S3152000306007010CBF00220122C8E50A9A47F6543010
S315200030700A997823C2F200001493166804318DF859
S315200030800D314AF0020A3023321E18BF01228DF874
S315200030900C3136464FF00007179002230A91ADE512
S315200030A00A9B14924FF00002181D8DF80F211B6801
S315200030B00A901193002B00F04D85B8F1000F11985E
S315200030C0C0F22A850021424602F092FA03460028E1
S315200030D000F06E8511981B1A0E93434540F38284A7
S315200030E0CDF83880002128EAE8789DF80F31CDF810
S315200030F02C801591C0E51AF0200F149210D00A9B4F
S31520003100DA1D0123A4E70A994AF0200A2A782B46D9
S315200031100A9164E44AF0100A14921AF0200FEED1B4
S315200031201AF0100F40F054821AF0400F00F050822F
S315200031300A980123011D0A910688321E18BF012212
S3152000314036464FF0000759E51AF0200F149247F63D
S315200031503032C2F2000217927FF43DAD1AF0100F02
S3152000316040F02D821AF0400F00F029820A990A1D9C
S315200031700A920E8836464FF0000735E51492012054
S315200031800A9A4FF000010B900E90136804328DF8C6
S315200031900F110A922DAA8DF8B43011924DE61AF02D
S315200031A0200F14927FF479AE1AF0100F40F0ED81C3
S315200031B01AF0400F00F0E9810A98011D0A91B0F932
S315200031C0006036464FEAE67770E64AF0100A149217
S315200031D01AF020037FF439AF1AF0100200F05F8254
S315200031E00A9A101D0A901668321E18BF012236460A
S315200031F04FF0000702E5149B652B7FF75AAC109819
S3152000320000220023199903F0A5FE002800F0E18092
S3152000321001236360389A47F67033C2F200032360B5
S31520003220399B013238920133072A3993D8BF04F1EA
S31520003230080300F39F82429A1898824203DB1AF011
S31520003240010F3FF47FAC1B9901225A60389A19600E
S315200032503999013238920131072A399100F3EB83EB
S315200032600833189A561E002E7FF76CAC102EA04FEE
S3152000327040F3E98110240DF1DC0803E0103E102E06
S3152000328040F3E1815C60389A399901321F60103130
S31520003290072A399103F108033892EFDD0998594638
S315200032A04246FFF7A5FA4B460028E7D07CE416995C
S315200032B000220E921191D6E40C990B9A8E1A002EAA
S315200032C07FF748AD102E8A4FC8BF4FF0100803DC99
S315200032D01BE0103E102E18DDC4F80480389B399A66
S315200032E0013327601032072B399204F108043893F2
S315200032F0EFDD0998594637AA4C46FFF779FA002898
S315200033007FF452AC103E102EE6DC6660389B2760B8
S315200033105A1C399B38929B19072A399300F38881C6
S31520003320083417E55E60389A1F60399B013238925F
S31520003330F318072A39937FF760AD0998594637AABB
S31520003340FFF756FA00283FF457AD2DE40998594661
S3152000335037AAFFF74DFA00283FF45AAD24E41AF0B5
S31520003360010F7FF4AAAB01236360389B399A01339E
S3152000337011990132072B3992216038937FF7D1AB0F
S315200033800998594637AAFFF733FA00287FF40CAC80
S315200033904C46FFF7C7BB0998594637AAFFF728FAC4
S315200033A000287FF401AC4C4608E50998594637AA0F
S315200033B0FFF71EFA00287FF4F7AB4C46B6E40998CF
S315200033C0594637AAFFF714FA00287FF4EDAB4C468E
S315200033D0BCE4429B002B40F3D98118998B42C0F262
S315200033E06F81119A6160389B2260399A0133389334
S315200033F05218072B3992D8BF04F1080300F3BA8379
S31520003400429C1898241A002C40F39B81102C384F8C
S3152000341040F38B81CDF838A01026AA460DF1DC08A2
S31520003420099D03E0103C102C40F37C815E60389AA5
S31520003430399901321F601031072A399103F10803A7
S315200034403892EFDD284659464246FFF7D1F94B46DA
S315200034500028E7D0FFF7A8BB1698DDF85CC0034626
S315200034601190310906F00F0241EA077138091CF85C
S3152000347002200E46074656EA070103F8012DF0D131
S31520003480169A1193D21A0E92FFF7EDBB002309224A
S31520003490B24273EB0700169B3EBFCDF82C80A046A8
S315200034A01C461AD2304639460A22002303F0ACFDC8
S315200034B030463946002302F1300C0A2204F801CDA9
S315200034C003F0A2FD06460F4609200021B042B9416D
S315200034D0E8D323464446DDF82C805A1E3036119216
S315200034E003F8016C169B9B1A0E93FFF7BCBB00BF1B
S315200034F0207B00200998594637AAFFF779F900283A
S315200035007FF452AB4C46FFF7FFBB1898461E002EA1
S315200035107FF708AB102E9C4FC8BF4FF0100803DC76
S315200035201BE0103E102E18DDC4F80480389B399A13
S31520003530013327601032072B399204F1080438939F
S31520003540EFDD0998594637AA4C46FFF751F900286E
S315200035507FF42AAB103E102EE6DC6660389B399A43
S31520003560013327609219072B399238937FF7D9AA0E
S3152000357006E7149830214AF0020A012202238DF828
S315200035800C118DF80D01FFF739BB0A9A131D166829
S315200035900A9336464FEAE677002E77F10000BFF60B
S315200035A08AAC764267EB47072D2356EA07028DF849
S315200035B00F310CBF002201220123FFF723BB0A9BF8
S315200035C0181D1E680A9036464FF00007FFF70CBB01
S315200035D00A9A131D16680A930123321E18BF012268
S315200035E036464FF00007FFF709BB0998594637AA18
S315200035F0FFF7FEF800287FF4D7AA4C46FFF779BAE2
S315200036000998594637AAFFF7F3F800287FF4CCAA81
S315200036104C46FFF760BA302800F09682119A302384
S3152000362002F8013D169B11929B1A0E93FFF71BBBC6
S315200036300998594637AAFFF7DBF800287FF4B4AA81
S315200036404C46FFF787BB5E60389A399901321F6076
S315200036508919072A399138923FF7C1AB0833FFF70A
S3152000366071BA0A992B462A780A91FFF7B8B91AF047
S31520003670100F00F0CD810A980D9900F1040A036815
S315200036801960FFF76DB90A9AD31D23F0070303F1DA
S3152000369008000A905E681F68199610973FE41AF092
S315200036A0400300F0A9810A9913460A1D0A920E8842
S315200036B0321E18BF012236464FF00007FFF79EBA8A
S315200036C0119A636038992260399A01313891D3185A
S315200036D00729399300F3628208340123429E6360EE
S315200036E0389B399A01331B980132072B3893D8BF60
S315200036F004F108032060399200F34682429A119918
S3152000370018988E191E60811A596039998A1A389923
S31520003710121839920131389107293FF760AB0833E7
S31520003720FFF710BA5546DDF838A05C60389A39990B
S3152000373001321F600919072A3991389200F37F82D6
S3152000374008331AF0010F3FF4FDA91B9901225A6094
S31520003750389A19603999013238920131072A3991FC
S315200037603FF73DAB0833FFF7EDB92D238DF80F3129
S31520003770FFF7E8BB0998594637AAFFF739F800281A
S315200037807FF412AA4B4656E5207B00200123636076
S31520003790389A47F67033C2F200032360399B013210
S315200037A038920133072A3993D8BF04F1080300F36E
S315200037B07381429A2AB9189818B91AF0010F3FF462
S315200037C0C1A91B9901225A60389A19603999013288
S315200037D038920131072A399100F368810833429CD7
S315200037E06442002C40F38781102C9E4F40F3A08129
S315200037F010260DF1DC0803E0103C102C40F39881D4
S315200038005E60389A399901321F601031072A399142
S3152000381003F108033892EFDD099859464246FEF730
S31520003820E7FF4B460028E7D0FFF7BEB9399B5E4637
S31520003830002B3FF4BAA90998594637AAFEF7D8FFB4
S31520003840FFF7B3B90A994AF0200A6A786B1C0A91E5
S31520003850FFF7C5B838463146089302F0FBFD089BB2
S31520003860002840F00181B8F1FF3F08BF08F10708A2
S315200038700ED0149A672A14BF00230123472A08BFB3
S3152000388043F0010323B1B8F1000F08BF4FF0010840
S3152000389033463A46CDE93A234AF4807A3B9B002BBD
S315200038A0C0F20A82002315931499662914BF0023B7
S315200038B00123462908BF43F001031293002B00F091
S315200038C08A810323CDF82C800B990E970F960093AF
S315200038D00998DDE90E23019142A9029141A903919C
S315200038E040A9049100F0E8FA149AB2F1670318BFD0
S315200038F00123472A0CBF002303F0010311902BB9A3
S315200039001AF0010F08BFDDF800C11AD0119B0B98E1
S31520003910129903EB000C29B11B78302B00F0D080D4
S31520003920429B9C443846002200233146CDF820C0D5
S3152000393003F010FBDDF820C0002800F07381CDF8DD
S3152000394000C114981199672814BF00230123472822
S3152000395008BF43F00103C1EB0C011891002B00F0C6
S315200039604A81429A12F1030F0E9202DB904580F2B1
S315200039704B81149B023B14930E9A1498531E429328
S31520003980002B8DF8F800C0F2D1812B228DF8F9207A
S31520003990092B00F362813FA930338DF8FB303023A9
S315200039A08DF8FA303EAB189ACB1A18991A935918F3
S315200039B0012A0E9140F3CC810E9801300E9020EA18
S315200039C0E0710B91159B002B00F0FD802D2300202C
S315200039D08DF80F311590FFF750B90C9B5B420C9375
S315200039E0FFF7CEBA0E9A00209DF80F3122EAE27236
S315200039F015900B92FFF740B90A98011D0A910668A7
S31520003A00321E18BF012236464FF00007FFF7F6B8E0
S31520003A101AF0400F17BF0A9A0A990D9802F1040A64
S31520003A2011BF136801F1040A0B680D9A14BF1880A0
S31520003A301A60FEF795BF0998594637AAFEF7D8FEB1
S31520003A4000287FF4B1A84B460BE40998402101F0E9
S31520003A50FDFA30603061002800F08D8140237361CB
S31520003A60FEF767BF207B0020032047F6503247F63B
S31520003A704C310B901498C2F20001C2F20002159349
S31520003A804728D8BF0A462AF0800A032111929DF8BA
S31520003A900F310E91FFF7F0B80998594637AAFEF76D
S31520003AA0A7FE00287FF480A84B4682E6099859464F
S31520003AB037AAFEF79DFE00287FF476A84B468EE6B1
S31520003AC03846002200233146CDF820C003F042FAC2
S31520003AD0DDF820C000287FF423AF0B9AC2F1010342
S31520003AE042931EE70998594637AAFEF781FE002819
S31520003AF07FF45AA84B46189A11985A60389A3999E1
S31520003B0018600132189838920918072A39913FF718
S31520003B1066A90833FFF716B80021159102F0AAFD11
S31520003B209DF80F3120EAE0720E900B92FFF7A4B8B1
S31520003B305C60389A1F60511C399A389112190729EE
S31520003B403992CFDC0833D6E716991198081A0E90C9
S31520003B50FFF789B8B8F1060F34BF4146062147F66C
S31520003B606832C2F2000221EAE1730E9111920B93A0
S31520003B70FFF763B90998594637AAFEF739FE002898
S31520003B807FF412A84B463BE40998594637AAFEF71C
S31520003B902FFE00287FF408A84B46AFE50998594622
S31520003BA037AAFEF725FE00287EF4FEAF4C4694E5A4
S31520003BB0CDF8388028EAE8781590CDF82C809DF845
S31520003BC00F31FFF759B80E989DF80F3120EAE070B3
S31520003BD00B90FFF751B8149A652A14BF00230123CE
S31520003BE0452A08BF43F00103002B32D008F1010318
S31520003BF00B93022368E61498652862DD149A662AD8
S31520003C001CBF429B0E936FD0189A0E9B9A425BDC88
S31520003C101AF0010F40F0818023EAE37067210B90B0
S31520003C201491CFE6409B9C4598BF9C467FF689AE73
S31520003C30302203F8012B9C454093FAD881E6099857
S31520003C40594637AAFEF7D4FD00287EF4ADAF4B4681
S31520003C5077E5CDF82C80023336E646F2676C0DF117
S31520003C60F700C6F2666C8CFB0321DA17C2EBA102C1
S31520003C7002EB8201A3EB410113463031092A00F8F9
S31520003C80011DF0DC3033421ED9B200F8011C079B1F
S31520003C90934298BF0DF1FA017FF684AE02460DF1EC
S31520003CA0FB0301E012F8011B03F8011C19460798D3
S31520003CB001339042F6D875E62D2006F10046159080
S31520003CC0F2E542990E9157E60E9918980029DABF27
S31520003CD00E9AC2F1020301231B18672123EAE3721D
S31520003CE00E9314910B926DE6429800280E9038DDC3
S31520003CF0B8F1000F07D11AF0010F04BF20EAE071D6
S31520003D000B913FF45FAE0E9A66201490531C4344E9
S31520003D100E9323EAE3710B9154E60E9A67231493CC
S31520003D2001320E9222EAE2700B904BE62D225B4284
S31520003D308DF8F9202CE60A991A78D1F800800431FA
S31520003D400A91B8F1000FB8BF4FF0FF38FEF747BE13
S31520003D501AF0010F04BF21EAE1730B933FF432AE50
S31520003D602AE6B8F1000F0ED11AF0010F0BD101226D
S31520003D700B920E9226E609980C234FF0FF310D91F7
S31520003D800360FEF71ABF08F10203662023EAE371F7
S31520003D900E9314900B9115E62DE9F84F03690E69E1
S31520003DA0824689469E4200F38380F21C01F1140567
S31520003DB000F11404013E92008B18121803F1040836
S31520003DC059685068013102F01FFD0746002839D096
S31520003DD000239C461A46E958E0581FFA81FE4FEA0E
S31520003DE0114B81B20EFB07CE51180BFB07FC0CEBD7
S31520003DF01E4C1FFA8EFECEEB01011FFA8CF24FEA03
S31520003E001C4CC2EB10421FFA81FE02EB21424EEA05
S31520003E100241E1500433121459198845DBD2321D70
S31520003E200AEB8203596869B99C4209D25AF82220C2
S31520003E3012B105E01A681AB9043B013E9C42F9D337
S31520003E40CAF810604946504601F0BEFC00282CDB1B
S31520003E50002301379C46EA58E05891B2120C1FFA0B
S31520003E6080F9C2EB1042C1EB0901614402EB214209
S31520003E7089B241EA0241E15004334FEA224C5A19F1
S31520003E809045E8D2321D0AEB8203596869B99C42F3
S31520003E9009D25AF8222012B105E01A681AB9043B51
S31520003EA0013E9C42F9D3CAF810603846BDE8F88F27
S31520003EB00020BDE8F88F00BF2DE9F04F466AA1B07B
S31520003EC00446904699462D9D002E00F023843268A4
S31520003ED082B1616A4FF0010C766820460B68566005
S31520003EE04A6819460CFA02F29A6001F0A7FD636A45
S31520003EF000221A60B9F1000638DB00232B6040F25D
S31520003F000003C7F6F0731A4606EA0303934217D056
S31520003F100022002340464946CDE9068903F01AF8D7
S31520003F20002829D02C9801232E990360002900F01F
S31520003F30D080794B581E2E9A136021B0BDE8F08FA1
S31520003F402C9842F20F730360B8F1000F00F09580B1
S31520003F5047F68030C2F200002E990029EDD0C278B3
S31520003F60C31C002AE7D000F10803E4E726F0004648
S31520003F700123B1462B60C2E72046DDE906231EA9B0
S31520003F8000911FA9019101F0ABFDC6F30A558346A6
S31520003F90002D7ED0DDE90601A5F57E751F9F073D24
S31520003FA021F07F4323F4700343F07E51002341F434
S31520003FB0E001199340F200030022C3F6F873FDF7DF
S31520003FC0A7FE4FA3D3E9002302F05CFD4EA3D3E95D
S31520003FD00023FDF79FFECDE908012846FDF7E6FF01
S31520003FE04BA3D3E9002302F04DFD02460B46DDE943
S31520003FF00801FDF78FFECDE9080102F0DDFF002262
S3152000400000230646DDE9080102F0AEFF40B1304646
S31520004010FDF7CCFFDDE9082302F09CFF00B9013E45
S31520004020162E5BD901231893013FB7EB050A42BF31
S31520004030CAF1000ACDF83CA04FF0000A01D40022B4
S315200040400F92002EC0F27183B24400231796159367
S315200040502A9B092B62D8052B40F377862A980027BE
S3152000406004382A902A998B1E032B00F2DD83DFE881
S3152000407013F0A503D803D503C40326F07F4626F400
S315200040807006002E7FF464AF47F67430C2F200004B
S3152000409062E71F9F1E9BFB1803F586639D1C202D40
S315200040A0DCBFC5F1200008FA00F008DD1E3BC5F193
S315200040B0400216FA02F228FA03F342EA0300FDF759
S315200040C065FFA5F586650122033D1992A1F1F871D8
S315200040D070E747F67030C2F200002EE747F6C83385
S315200040E0DDE90601C2F2000303EBC603D3E9002390
S315200040F002F03AFF002840F02083189094E700BF92
S3152000410061436F63A787D23FB3C8608B288AC63FB7
S31520004110FB799F501344D33F717B002000234FF03F
S31520004120FF301F4601212A931190169108902B9358
S31520004130656A00236B602046696801F09BFC636A10
S3152000414028601B681093002F00F05B81002E40F33F
S315200041502A8447F6C83306F00F02C2F2000335114F
S3152000416003EBC20315F0100FD3E90001CDE90C01D2
S3152000417000F0E78247F6A043DDE90601C2F200031C
S3152000418005F00F054FF00308D3E9082302F0A4FD3C
S31520004190CDE91201BDB147F6A047DDE90C23C2F2F5
S315200041A0000715F0010F1046194607D0D7E900235E
S315200041B008F1010802F066FC02460B4608376D102E
S315200041C0EFD1CDE90C23DDE90C23DDE9120102F064
S315200041D083FDCDE90C011899002900F0DE8040F21C
S315200041E00003DDE90C010022C3F6F0734FF0000551
S315200041F002F0BAFE08B14FF00105089A002AD4BF92
S31520004200002505F00105002D00F0C780119B002B2D
S3152000421040F3F58040F200030022C4F22403DDE9D6
S315200042200C0102F02FFCCDE90C0108F10100711EF2
S315200042301291FDF7BBFE02460B46DDE90C0102F0AA
S3152000424021FC40F200030022C4F21C03FDF762FDAC
S31520004250DDF844C08046A1F15079169B002B00F072
S31520004260AD8347F6C83340F20001C2F200030020B6
S3152000427003EBCC03C3F6E071CDF80CC053E902235F
S3152000428002F02AFD42464B46109DFDF741FD804631
S315200042908946DDE90C0102F08FFE0746FDF786FE12
S315200042A002460B46DDE90C01FDF732FD07F130032E
S315200042B0CDE90C01404605F8013B4946DDE90C23D2
S315200042C002F070FE002840F0138240F20001DDE982
S315200042D00C230020C3F6F071FDF71AFD02460B46AB
S315200042E04046494602F05EFEDDF80CC0002840F04C
S315200042F0E783BCF1010F40F38280CDF868B0012737
S31520004300CDF870A01D966646DDE90CAB0C9410E046
S3152000431040F200010020C3F6F071FDF7F9FC424699
S315200043204B4602F021FE002840F0C783B74280F2B8
S315200043308B8440F20003404649460022C4F22403FF
S31520004340013502F09FFB40F200030022C4F2240351
S31520004350804689465046594602F094FB8B46824653
S3152000436002F02AFE0446FDF721FE303402460B46B3
S3152000437050465946FDF7CCFC109A4B46D45542463A
S31520004380013782468B4602F0EFFD52465B460028F7
S31520004390BED0DDF868B00C9CAAE14046FDF706FECB
S315200043A0DDE90C2302F06EFB40F200030022C4F28A
S315200043B01C03FDF7AFFC089AA1F150758046A9466B
S315200043C0002A40F0EC8240F20003DDE90C010022D5
S315200043D0C4F21403FDF79CFC42462B46CDE90C01A2
S315200043E002F0E0FD002840F04A824246DDE90C0159
S315200043F005F1004302F0B8FD002840F0D581DDE943
S3152000440006891E9B6FEA03074FEAD7770E2ECCBF8D
S31520004410002707F00107002F00F0B7802B9847F6FA
S31520004420C833C2F20003089903EBC603C20F002962
S31520004430CCBF002202F00102D3E90001CDE904013C
S31520004440002A40F0A08102460B464046494602F02B
S3152000445043FC109D02F0B0FD8246FDF7A7FDDDE985
S31520004460042302F00FFB02460B4640464946FDF761
S315200044704FFC0AF1300305F8013B089A012A8046D1
S31520004480894652D040F200030022C4F2240302F0EF
S31520004490F9FA00220023CDE9060102F05BFD00288F
S315200044A040F0EB8110984FF00108CDF82CB0A346D0
S315200044B0871C0F96DDF82090DDE906450AE002F01C
S315200044C0E1FA0022002304460D4602F043FD0028AF
S315200044D040F0CE81DDE904232046294608F1010873
S315200044E002F0FAFB3E4602F067FD8246FDF75EFDCE
S315200044F0DDE9042302F0C6FA02460B462046294689
S31520004500FDF706FC00220AF1300C07F801CC013732
S31520004510C14540F20003C4F22403D0D135465C469F
S315200045200F9E8046DDF82CB0894642464B464046D3
S315200045304946FDF7EFFB804689464246DDE9040100
S315200045404B4602F011FD60B9DDE9040142464B46B7
S3152000455002F000FD002800F090811AF0010F00F013
S315200045608C81109900E01D4615F8012C6B1E392A06
S3152000457040F067838B42F6D11099302301363122E1
S315200045800B70109B1A701296B2E0169A002A40F011
S31520004590DF80159F0F9D0C92002DD4BF0023012391
S315200045A0BAF1000FD4BF002303F001034BB1AA4593
S315200045B0B4BF53462B460F98C3EB0A0AED1AC01A0E
S315200045C00F90159900291CDD169A002A00F0E98221
S315200045D0002F12DD0C993A46204601F0ABFC5A46D4
S315200045E00C9020460C9901F0BDFB59460346204607
S315200045F0039301F023FA039B9B46159BDA1B40F09D
S3152000460011830121204601F047FC069017980028C7
S3152000461005DD06992046179A01F08CFC06902A990A
S31520004620012940F30A810027179B002B40F0618265
S315200046300123534413F01F0340F02A811C230F9AB1
S315200046409A44ED18D2180F920F9B002B05DD594680
S315200046501A46204601F028FB8346BAF1000F05DDF5
S3152000466006995246204601F01FFB0690189800280E
S3152000467040F029822A9808990228D4BF00230123D2
S315200046800029CCBF002303F00103002B00F00C818E
S31520004690002940F08C8005220699089B204601F0CF
S315200046A005FC06905846069901F08EF800287EDD16
S315200046B0109D01360027DDF830A0312305F8013B97
S315200046C00699204601F0BAF9BAF1000F00F0D5801C
S315200046D03B1E18BF012357450CBF002303F00103DF
S315200046E0002B40F0D0805146204601F0A7F91296C3
S315200046F02046594601F0A2F9129A531C00222A702C
S315200047002C982E990360002900F0D4812E9A1098B7
S31520004710156012E4102000F091FCC66046608660A9
S31520004720066006466062FFF7D2BB0F9871420022F0
S315200047301591801B17920F908AE40021013E189153
S3152000474072E4DDE906234FF00208CDE9122321E5C4
S315200047502A98012840F36C82089A1598531E98428D
S31520004760C0F25882C71A089B002BA8BF0F9DC0F223
S3152000477073820F9A204601219A44D2180F9201F093
S315200047808BFB0C9008E7089B73B940F200030022CC
S31520004790C4F21403DDE9040102F074F942464B46E3
S315200047A002F0F6FB00286AD0002206920C922B9B80
S315200047B00027DDF830A0DE43109D81E70021169109
S315200047C02B98002840F39F812B9801461190089042
S315200047D0656A002217296A6040F2AB8204235B00D7
S315200047E0013203F114008842F9D9089B6A600E2B26
S315200047F08CBF002707F001079DE4012216922B9B10
S31520004800F3181193591C0029C8BF0891E0DC0E2922
S315200048108CBF002707F00107089189E4012316932E
S31520004820CEE700221692EAE74FF0FF330027012059
S315200048301193169008932B977AE4B8F1000F7FF422
S31520004840F2AE29F07F4323F47003002B7FF4EBAE06
S3152000485040F20003C7F6F07309EA0303002B3FF486
S31520004860E2AE0F9A0AF1010A012701320F92DBE626
S3152000487035465C460F9EDDF82CB0129638E70020B0
S3152000488006900C9014E73946204601F0D7F82AE71F
S31520004890C3F12003042B40F354820F99043B9A441E
S315200048A0ED18C9180F91CFE61699002900F031812D
S315200048B0002D05DD0C992A46204601F0F5F90C90CD
S315200048C0002F40F0EA81DDF830A0109D012308F08A
S315200048D001000C9F11900F951D460C96069958467F
S315200048E0FFF75AFA394630300B90584600F06CFFE5
S315200048F0069952460646204601F05AF9C368804674
S31520004900002B3DD04FF001094146204601F096F894
S315200049102A9959EA010103D1119A002A00F0EB8164
S31520004920002EC0F29E812A9A324303D1119B002B7E
S3152000493000F09781B9F1000F00F3CE810F990B9A01
S3152000494001F8012B089B0F919D4200F0C281594628
S315200049500A220023204601F0A9FA57453946834604
S3152000496014D00A2200232046013501F09FFA514631
S315200049700A2200230746204601F098FA8246ADE730
S315200049805846414600F020FF8146BDE720460A22D0
S315200049900023013501F08AFA074682469EE71296E1
S315200049A0DDF820C059E47542002D40F00181DDE993
S315200049B006014FF00208CDE90C010CE447F6C83198
S315200049C04246C2F200014B4601EBCC01CDF80CC0A9
S315200049D0109D51E9020102F055F8CDE91A01DDE9F1
S315200049E00C0102F0E9FA0746FDF7E0FA0B4602460B
S315200049F0DDE90C01FDF78CF907F13003CDE90C0157
S31520004A0005F8013BDDF80CC0BCF1010F29D0D146D9
S31520004A10DDE90C01B246109E1C9501276546A0468D
S31520004A2040F200030022C4F2240302F02BF8CDE961
S31520004A300C0102F0C1FA0446FDF7B8FA30340246FA
S31520004A400B46DDE90C01FDF763F9F4550137AF425A
S31520004A50E6D11C9D013F56464446CA46ED19CDE98E
S31520004A600C0140F200030022C3F6E073DDE91A01CF
S31520004A70FDF750F902460B46DDE90C0102F092FAE9
S31520004A80F0B940F20001DDE91A230020C3F6E071F7
S31520004A90FDF73EF902460B46DDE90C0102F064FA09
S31520004AA000283FF4ACAC2B461D4613F8012D302AC6
S31520004AB0FAD01DE61098FFF740BADDF868B00C9CD6
S31520004AC0129E109950E55846069900F07DFE002862
S31520004AD0BFF6D0AD594620460A22002301F0E6F95A
S31520004AE01699013E8346002940F01981119A0892B1
S31520004AF0C0E50698036900EB8303186900F012FEEF
S31520004B00C0F1200395E50121119108912B91FFF722
S31520004B100FBB109DB146169FAA46DDF81880089E49
S31520004B2002E001F0C3F9834641465846FFF734F9BF
S31520004B3001350A220023594600F1300C0AF807C035
S31520004B4001372046BE42ECDCDDF830A04E46002779
S31520004B50CDF82CC059460122204601F0A5F8069929
S31520004B60834600F031FE00280FDD109900E01D4637
S31520004B7015F8012C6B1E392A40F08C808B42F6D119
S31520004B801099312301360B709AE503D10B9810F05A
S31520004B90010FEAD12B461D4613F8012D302AFAD0F3
S31520004BA08EE55946159A204601F0C4F9834628E534
S31520004BB005F00F0347F6C832C2F20002DDE906010E
S31520004BC002EBC303D3E9002301F05CFF2D1108BFDC
S31520004BD04FF00208CDE90C013FF4FDAA47F6A047A5
S31520004BE0DDE90C234FF00208C2F2000715F0010F91
S31520004BF01046194607D0D7E9002308F1010801F02D
S31520004C0041FF02460B4608376D10EFD1CDE90C2344
S31520004C10FFF7E1BA1599179A5B1AC918D218159198
S31520004C201792A0E55946204601F084F98346E8E428
S31520004C301999002947D003F58663159F03330F9DE5
S31520004C4097E50132D2B29DE4DDF868B0DDF870A0B8
S31520004C501D9E0C9CFFF7D3BB0F99002308980D1AB5
S31520004C6087E5B9F1000F0F9D0C9E0FDD59460122F5
S31520004C70204601F019F80699834600F0A5FD002884
S31520004C8047DD0B99392931D001310B910B9A05F863
S31520004C90012B15E501321A7012E50C9A204651684F
S31520004CA000F0E8FE0C9B03F10C011A690232920017
S31520004CB005460C30FDF766FC20462946012200F009
S31520004CC0F3FF824601E61F9B159F0F9DC3F1360316
S31520004CD04FE50F9D0C9E3DE70B9B0F9D392B0C9EA0
S31520004CE004D00B98431C05F8013BE9E4392305F869
S31520004CF0013B10993CE70B9833460F9D39280C9EB3
S31520004D00F4D0002B01DD01300B900B9905F8011B27
S31520004D10D6E4BBD10B9810F0010FB7D0B1E7002332
S31520004D200C9920460A2201F0C1F8119B08930C9099
S31520004D30A0E408990E298CBF002707F00107FFF78A
S31520004D40FAB93FF481AC1C3379E40127FFF78AB91D
S31520004D50F8B547F68064C2F200040F46054600F017
S31520004D60DDFCA3685E6826F0030606F57E630F3336
S31520004D70DF1B3F0B013F3F03B7F5805F07DB0021B9
S31520004D80284601F075FBA368F318834204D0284611
S31520004D9000F0C6FC0020F8BD7942284601F068FBE9
S31520004DA0B0F1FF3F10D0A26848F2D453C2F20003FC
S31520004DB0F61B46F00106284656601A68D71B1F6068
S31520004DC000F0AEFC0120F8BD0021284601F050FB82
S31520004DD0A368C21A0F2ADADD48F2882448F2D45191
S31520004DE0C2F20004C2F2000142F001022468001B54
S31520004DF008605A60CBE700BF2DE9F04105460C4616
S31520004E00002900F0888000F089FCA4F1080247F60A
S31520004E1080605668C2F2000026F00103D0F808C070
S31520004E20D1188C454F6827F0030700F0958016F0BF
S31520004E3001064F605FD00026CC19646814F0010F7C
S31520004E4006D1DB19002E7AD08C68C9688C60E160A7
S31520004E5043F00101D3505160002E47D1B3F5007FB6
S31520004E605BD3590A04299EBF4FEA931C0CF1380CD8
S31520004E704FEACC0428D914299CBF01F15B0C4FEAD8
S31520004E80CC0421D954299EBF4FEA133C0CF16E0C59
S31520004E904FEACC0418D9B1F5AA7F9EBF4FEAD33C7E
S31520004EA00CF1770C4FEACC040ED940F2545C6145E4
S31520004EB095BF4FEA934C4FF47C740CF17C0C4FF069
S31520004EC07E0C98BF4FEACC040419A168A14203D1F5
S31520004ED064E089688C4204D0486820F0030083424D
S31520004EE0F7D3CB68D3609160CA609A602846BDE844
S31520004EF0F04100F015BC54F8084C00F1080C121BC8
S31520004F001B199468644547D0D2F80CC0CCF80840E9
S31520004F10C4F80CC090E7BDE8F081DB084FF0010C27
S31520004F20466800EBC3019B100CFA03F3D1608C6832
S31520004F3046EA030343609460E2608A60D6E78C68A1
S31520004F401C4FBC4281D1D35043F00103E260A260E2
S31520004F5053609460D460C9E7FB1816F0010F07D19F
S31520004F6054F8081C521A5B18D4689168A160CC606A
S31520004F7048F28C218260C2F2000143F001005060A9
S31520004F800A689342B2D348F2D0532846C2F20003AD
S31520004F901968FFF7DDFEA9E701264DE701264468DB
S31520004FA04FEAAC0C0B4606FA0CFC44EA0C044460AF
S31520004FB098E700BF887E002047F68433C2F20003BC
S31520004FC01868704700487047887B00200048704763
S31520004FD0887B002070B505460E46144672B147F60A
S31520004FE00C311046C2F2000101F056FA58B947F6C4
S31520004FF00C302C62C2F20000EE6170BD47F60C3018
S31520005000C2F2000070BD47F640312046C2F20001D0
S3152000501001F042FA0028EAD0002070BD47F68C53F2
S315200050200A46C2F2000301461868D3E747F68C53B6
S315200050300146C2F200031868FFF7DEBE47F68C531E
S315200050400146C2F20003186800F000B82DE9F04FBF
S3152000505001F10B04162C83B006462FD8002310240A
S315200050608C422CBF194643F00101002930D130462D
S3152000507000F054FBB4F5FC7F2ED24FEAD40E47F64F
S315200050808065C2F2000505EBCE02D368934200F09C
S3152000509006825A6803F10805D968304622F0030CC7
S315200050A09A6863445C688A6044F00104D1605C605D
S315200050B000F036FB284603B0BDE8F08F24F0070445
S315200050C0E30F8C422CBF194643F001010029CED0B4
S315200050D00C2300253360EDE75FEA542E04BF4FEA28
S315200050E0D40E4FEACE0040F0908047F68065C2F29B
S315200050F000052818C368984206D10DE0002A80F2E0
S315200051006F81DB68984207D0596821F003010A1B9A
S315200051100F2AF3DD0EF1FF3E0EF1010E47F68067F2
S31520005120C2F2000707F108018B68994208BF7A6826
S3152000513026D05A6822F0030CC4EB0C020F2A00F387
S315200051409481002AC960896080F29980BCF5007F2D
S3152000515080F065814FEADC0C4FF0010A7A6807EB94
S31520005160CC004FEAAC0C0AFA0CFCD860D0F80880C8
S315200051704CEA02027A60C3F80880C8F80C308360D3
S315200051804FF0010C4FEAAE030CFA03FC944500F2F3
S31520005190828012EA0C0F08D12EF0030E4FEA4C0C37
S315200051A00EF1040E12EA0C0FF8D007EBCE09F246E8
S315200051B0C846D8F80C30984507D168E1002A80F215
S315200051C07881DB68984500F06281586820F00300FA
S315200051D0021B0F2AF2DD1D461F19D3F80CC044F01E
S315200051E0010E55F8084F3046BA5042F00102C3F876
S315200051F004E0CCF80840C4F80CC08F60CF607A6019
S31520005200B960F96000F08CFA54E7BEF1040F9EBF36
S315200052104FEA941E0EF1380E4FEACE007FF665AFA8
S31520005220BEF1140F9CBF0EF15B0E4FEACE007FF647
S315200052305CAFBEF1540F9EBF4FEA143E0EF16E0EC8
S315200052404FEACE007FF651AFBEF5AA7F9EBF4FEA4A
S31520005250D43E0EF1770E4FEACE007FF646AF40F2EF
S3152000526054539E4595BF4FEA944E4FF47C700EF1F1
S315200052707C0E4FF07E0E98BF4FEACE0035E703EB4B
S315200052800C0203F108053046536843F001035360CE
S3152000529000F046FA0EE7D7F80880D8F8043023F055
S315200052A00309C4EB09024C4594BF002301230F2AAE
S315200052B0D8BF43F00103002B00F0A18048F2D05B59
S315200052C0D5F80824C2F2000BDBF8003010331B1986
S315200052D0B2F1FF3F06D003F57E631F3323F47E63CE
S315200052E023F01F0319463046019301F0C1F8019BB4
S315200052F0B0F1FF3F824600F0F48008EB09018142BD
S3152000530000F2EC80DBF804209A185145CBF80420F3
S3152000531000F04581D5F8085447F68060C2F20000B7
S31520005320B5F1FF3F08BFC0F808A403D05244511A74
S31520005330CBF804101AF00705304617BFC5F108054B
S315200053404FF48055AA4405F5805553441B051B0D83
S31520005350ED1A294601F08CF8B0F1FF3F00F02C81C0
S31520005360CAEB0001491941F00101DBF8042048F29B
S31520005370D053C7F808A0C2F20003AA18B845CBF844
S315200053800420CAF8041017D0B9F10F0F40F2DF80BD
S31520005390A9F10C01052521F0070108EB01000F29D1
S315200053A085604560D8F8040000F0010041EA00005D
S315200053B0C8F8040000F2AC80D04648F2D053DBF89F
S315200053C02C10C2F200038A42DBF8301088BFDA6262
S315200053D048F2D053C2F200038A4288BF1A6382E0A1
S315200053E05C189A68D9683046666803F108058A60B1
S315200053F046F00103D160636000F092F95AE608EBAB
S31520005400040342F0010244F001043046C8F8044087
S3152000541008F108055A60BB6000F082F94AE64FEAB7
S315200054205C22042A54D9142A00F289805B324FEA7E
S31520005430C208A84447F68067C2F20007D8F80800D9
S31520005440404503D16FE08068804504D0426822F051
S3152000545003029445F7D3D0F80CC0C3F80CC098606B
S315200054607A68C360CCF808308AE61F19304644F0C3
S315200054700104CF605C6003F10805BA5042F00102D6
S315200054808F607A60B960F96000F04AF912E60AF195
S31520005490010A1AF0030F5FD003F1080889E603F129
S315200054A00802D3689A4208BF0EF1020E3FF436AEC8
S315200054B0EFE51D461918DA68304655F8083F4C685E
S315200054C0936044F00104DA604C6000F029F9F1E5BC
S315200054D04FEA9C1238324FEAC208AAE7B8453FF491
S315200054E011AFD7F80880D8F8042022F0030294429E
